:1000000071C000008EC000008CC000008AC00000DB
:1000100088C0000086C0000084C0000082C00000CC
:1000200080C000007EC000007CC000007AC00000DC
:1000300078C0000076C0000074C0000072C00000EC
:1000400070C000006EC000006CC000006AC00000FC
:1000500068C0000066C0000064C0000062C000000C
:1000600060C000005EC000005CC000005AC000001C
:1000700058C0000056C0000054C0000052C000002C
:1000800050C000004EC000004CC000004AC000003C
:1000900048C0000046C0000044C0000042C000004C
:1000A00040C000003EC000003CC000003AC000005C
:1000B00038C0000036C0000034C0000032C000006C
:1000C00030C000002EC000002CC000002AC000007C
:1000D00028C0000026C0000024C0000022C000008C
:1000E00020C0000011241FBECFEFD1E2DEBFCDBF84
:1000F00000E00CBF12E0A0E0B2E0EAEDF2E000E0C8
:100100000BBF02C007900D92A431B107D9F722E0CE
:10011000A4E1B2E001C01D92A731B207E1F793D08C
:10012000DAC06ECF8FE99FE00197F1F700C00000C1
:10013000429A8FE99FE00197F1F700C000004298D2
:100140008FE99FE00197F1F700C0000008950A963B
:100150008431910528F4FC01E050FE4F8081089520
:1001600080E008950F931F93CF93DF93F0DF082F64
:1001700010E0C7E0D0E0C8010C2E02C0959587952D
:100180000A94E2F780FD02C0439801C0439ACADF97
:10019000219788F7DF91CF911F910F9108950F93C9
:1001A0001F93CF93DF93CDB7DEB728970FB6F894A0
:1001B000DEBF0FBECDBF439A8F839887B3DF8F8199
:1001C000988597FF07C021E02093140291958195AF
:1001D000910902C0109214022AE030E0B90154D013
:1001E0009E838D83CB01B9014FD09C838B83CB0140
:1001F000B9014AD09A83898320911402222349F0BD
:10020000019719F48FEF9FEF02C086EF9FEF9A835B
:10021000898389819A81A6DF8B819C81A3DF8D816F
:100220009E81A0DF0BE010E07DDF01501109E1F7B6
:1002300028960FB6F894DEBF0FBECDBFDF91CF91E9
:100240001F910F9108953A9A3B9A3C9ACFEAD4E0D5
:100250008091150290911602875C9109A0DF2FEF23
:1002600080E792E0215080409040E1F700C000001C
:1002700080911502909116020196BE0105D09093CF
:10028000160280931502E4CF97FB072E16F4009414
:1002900006D077FD08D00BD007FC05D03EF4909532
:1002A00081959F4F0895709561957F4F0895AA1B82
:1002B000BB1B51E107C0AA1FBB1FA617B70710F051
:1002C000A61BB70B881F991F5A95A9F78095909583
:0A02D000BC01CD010895F894FFCFA2
:1002DA0002000000000000000062FC60DAF266B66C
:0402EA00BEE0FEF67E
:00000001FF
